{
  "contractName": "TweetStorage",
  "abi": [
    {
      "inputs": [],
      "name": "controllerAddr",
      "outputs": [
        {
          "internalType": "address",
          "name": "",
          "type": "address"
        }
      ],
      "stateMutability": "view",
      "type": "function",
      "constant": true
    },
    {
      "inputs": [],
      "name": "ownerAddr",
      "outputs": [
        {
          "internalType": "address",
          "name": "",
          "type": "address"
        }
      ],
      "stateMutability": "view",
      "type": "function",
      "constant": true
    },
    {
      "inputs": [
        {
          "internalType": "address",
          "name": "_controllerAddr",
          "type": "address"
        }
      ],
      "name": "setControllerAddr",
      "outputs": [],
      "stateMutability": "nonpayable",
      "type": "function"
    },
    {
      "inputs": [
        {
          "internalType": "address",
          "name": "_newOwner",
          "type": "address"
        }
      ],
      "name": "transferOwnership",
      "outputs": [],
      "stateMutability": "nonpayable",
      "type": "function"
    },
    {
      "inputs": [
        {
          "internalType": "uint256",
          "name": "",
          "type": "uint256"
        }
      ],
      "name": "tweetIds",
      "outputs": [
        {
          "internalType": "uint256",
          "name": "",
          "type": "uint256"
        }
      ],
      "stateMutability": "view",
      "type": "function",
      "constant": true
    },
    {
      "inputs": [
        {
          "internalType": "uint256",
          "name": "",
          "type": "uint256"
        }
      ],
      "name": "tweets",
      "outputs": [
        {
          "internalType": "uint256",
          "name": "id",
          "type": "uint256"
        },
        {
          "internalType": "string",
          "name": "text",
          "type": "string"
        },
        {
          "internalType": "uint256",
          "name": "userId",
          "type": "uint256"
        },
        {
          "internalType": "uint256",
          "name": "postedAt",
          "type": "uint256"
        }
      ],
      "stateMutability": "view",
      "type": "function",
      "constant": true
    },
    {
      "inputs": [],
      "name": "getNumTweets",
      "outputs": [
        {
          "internalType": "uint256",
          "name": "_numTweets",
          "type": "uint256"
        }
      ],
      "stateMutability": "view",
      "type": "function",
      "constant": true
    },
    {
      "inputs": [
        {
          "internalType": "uint256",
          "name": "_userId",
          "type": "uint256"
        },
        {
          "internalType": "string",
          "name": "_text",
          "type": "string"
        }
      ],
      "name": "createTweet",
      "outputs": [
        {
          "internalType": "uint256",
          "name": "",
          "type": "uint256"
        }
      ],
      "stateMutability": "nonpayable",
      "type": "function"
    },
    {
      "inputs": [
        {
          "internalType": "uint256",
          "name": "_userId",
          "type": "uint256"
        }
      ],
      "name": "getTweetIdsFromUser",
      "outputs": [
        {
          "internalType": "uint256[]",
          "name": "",
          "type": "uint256[]"
        }
      ],
      "stateMutability": "view",
      "type": "function",
      "constant": true
    }
  ],
  "bytecode": "0x6080604052600060055534801561001557600080fd5b50336000806101000a81548173ffffffffffffffffffffffffffffffffffffffff021916908373ffffffffffffffffffffffffffffffffffffffff160217905550610cb3806100656000396000f3fe608060405234801561001057600080fd5b50600436106100935760003560e01c80639c675eaa116100665780639c675eaa14610144578063e8d857b014610162578063eb4fdc3f14610195578063ee255c57146101b3578063f2fde38b146101d157610093565b806317edf66d14610098578063317aae1b146100c85780636981fa7d146100f85780637cc82f2014610114575b600080fd5b6100b260048036038101906100ad9190610744565b6101ed565b6040516100bf9190610780565b60405180910390f35b6100e260048036038101906100dd9190610744565b610211565b6040516100ef9190610859565b60405180910390f35b610112600480360381019061010d91906108d9565b61027c565b005b61012e60048036038101906101299190610a4c565b610318565b60405161013b9190610780565b60405180910390f35b61014c610474565b6040516101599190610ab7565b60405180910390f35b61017c60048036038101906101779190610744565b610498565b60405161018c9493929190610b5a565b60405180910390f35b61019d610550565b6040516101aa9190610780565b60405180910390f35b6101bb61055d565b6040516101c89190610ab7565b60405180910390f35b6101eb60048036038101906101e691906108d9565b610583565b005b600481815481106101fd57600080fd5b906000526020600020016000915090505481565b60606003600083815260200190815260200160002080548060200260200160405190810160405280929190818152602001828054801561027057602002820191906000526020600020905b81548152602001906001019080831161025c575b50505050509050919050565b60008054906101000a900473ffffffffffffffffffffffffffffffffffffffff1673ffffffffffffffffffffffffffffffffffffffff163373ffffffffffffffffffffffffffffffffffffffff16146102d457600080fd5b80600160006101000a81548173ffffffffffffffffffffffffffffffffffffffff021916908373ffffffffffffffffffffffffffffffffffffffff16021790555050565b6000600160009054906101000a900473ffffffffffffffffffffffffffffffffffffffff1673ffffffffffffffffffffffffffffffffffffffff163373ffffffffffffffffffffffffffffffffffffffff161461037457600080fd5b6005600081548092919061038790610bd5565b919050555060405180608001604052806005548152602001838152602001848152602001428152506002600060055481526020019081526020016000206000820151816000015560208201518160010190805190602001906103ea929190610657565b50604082015181600201556060820151816003015590505060036000848152602001908152602001600020600554908060018154018082558091505060019003906000526020600020016000909190919091505560046005549080600181540180825580915050600190039060005260206000200160009091909190915055600554905092915050565b60008054906101000a900473ffffffffffffffffffffffffffffffffffffffff1681565b60026020528060005260406000206000915090508060000154908060010180546104c190610c4c565b80601f01602080910402602001604051908101604052809291908181526020018280546104ed90610c4c565b801561053a5780601f1061050f5761010080835404028352916020019161053a565b820191906000526020600020905b81548152906001019060200180831161051d57829003601f168201915b5050505050908060020154908060030154905084565b6000600480549050905090565b600160009054906101000a900473ffffffffffffffffffffffffffffffffffffffff1681565b60008054906101000a900473ffffffffffffffffffffffffffffffffffffffff1673ffffffffffffffffffffffffffffffffffffffff163373ffffffffffffffffffffffffffffffffffffffff16146105db57600080fd5b600073ffffffffffffffffffffffffffffffffffffffff168173ffffffffffffffffffffffffffffffffffffffff160361061457600080fd5b806000806101000a81548173ffffffffffffffffffffffffffffffffffffffff021916908373ffffffffffffffffffffffffffffffffffffffff16021790555050565b82805461066390610c4c565b90600052602060002090601f01602090048101928261068557600085556106cc565b82601f1061069e57805160ff19168380011785556106cc565b828001600101855582156106cc579182015b828111156106cb5782518255916020019190600101906106b0565b5b5090506106d991906106dd565b5090565b5b808211156106f65760008160009055506001016106de565b5090565b6000604051905090565b600080fd5b600080fd5b6000819050919050565b6107218161070e565b811461072c57600080fd5b50565b60008135905061073e81610718565b92915050565b60006020828403121561075a57610759610704565b5b60006107688482850161072f565b91505092915050565b61077a8161070e565b82525050565b60006020820190506107956000830184610771565b92915050565b600081519050919050565b600082825260208201905092915050565b6000819050602082019050919050565b6107d08161070e565b82525050565b60006107e283836107c7565b60208301905092915050565b6000602082019050919050565b60006108068261079b565b61081081856107a6565b935061081b836107b7565b8060005b8381101561084c57815161083388826107d6565b975061083e836107ee565b92505060018101905061081f565b5085935050505092915050565b6000602082019050818103600083015261087381846107fb565b905092915050565b600073ffffffffffffffffffffffffffffffffffffffff82169050919050565b60006108a68261087b565b9050919050565b6108b68161089b565b81146108c157600080fd5b50565b6000813590506108d3816108ad565b92915050565b6000602082840312156108ef576108ee610704565b5b60006108fd848285016108c4565b91505092915050565b600080fd5b600080fd5b6000601f19601f8301169050919050565b7f4e487b7100000000000000000000000000000000000000000000000000000000600052604160045260246000fd5b61095982610910565b810181811067ffffffffffffffff8211171561097857610977610921565b5b80604052505050565b600061098b6106fa565b90506109978282610950565b919050565b600067ffffffffffffffff8211156109b7576109b6610921565b5b6109c082610910565b9050602081019050919050565b82818337600083830152505050565b60006109ef6109ea8461099c565b610981565b905082815260208101848484011115610a0b57610a0a61090b565b5b610a168482856109cd565b509392505050565b600082601f830112610a3357610a32610906565b5b8135610a438482602086016109dc565b91505092915050565b60008060408385031215610a6357610a62610704565b5b6000610a718582860161072f565b925050602083013567ffffffffffffffff811115610a9257610a91610709565b5b610a9e85828601610a1e565b9150509250929050565b610ab18161089b565b82525050565b6000602082019050610acc6000830184610aa8565b92915050565b600081519050919050565b600082825260208201905092915050565b60005b83811015610b0c578082015181840152602081019050610af1565b83811115610b1b576000848401525b50505050565b6000610b2c82610ad2565b610b368185610add565b9350610b46818560208601610aee565b610b4f81610910565b840191505092915050565b6000608082019050610b6f6000830187610771565b8181036020830152610b818186610b21565b9050610b906040830185610771565b610b9d6060830184610771565b95945050505050565b7f4e487b7100000000000000000000000000000000000000000000000000000000600052601160045260246000fd5b6000610be08261070e565b91507fffffffffffffffffffffffffffffffffffffffffffffffffffffffffffffffff8203610c1257610c11610ba6565b5b600182019050919050565b7f4e487b7100000000000000000000000000000000000000000000000000000000600052602260045260246000fd5b60006002820490506001821680610c6457607f821691505b602082108103610c7757610c76610c1d565b5b5091905056fea2646970667358221220755116ce12d5a01bd261f07755d536cafc460f50d6af89ff4ea2d4aafc149f5664736f6c634300080d0033",
  "immutableReferences": {},
  "source": "// SPDX-License-Identifier: UNLICENSED\npragma solidity ^0.8.13;\n\nimport \"../helpers/BaseStorage.sol\";\n\ncontract TweetStorage is BaseStorage {\n    struct Tweet {\n        uint256 id;\n        string text;\n        uint256 userId;\n        uint256 postedAt;\n    }\n\n    mapping(uint256 => Tweet) public tweets;\n    mapping(uint256 => uint256[]) userTweetIds;\n    uint256[] public tweetIds;\n\n    uint256 latestTweetId = 0;\n\n    function getNumTweets() public view returns (uint256 _numTweets) {\n        return tweetIds.length;\n    }\n\n    function createTweet(uint256 _userId, string memory _text)\n        public\n        onlyController\n        returns (uint256)\n    {\n        latestTweetId++;\n\n        tweets[latestTweetId] = Tweet(\n            latestTweetId,\n            _text,\n            _userId,\n            block.timestamp\n        );\n        userTweetIds[_userId].push(latestTweetId);\n        tweetIds.push(latestTweetId);\n\n        return latestTweetId;\n    }\n\n    function getTweetIdsFromUser(uint256 _userId)\n        public\n        view\n        returns (uint256[] memory)\n    {\n        return userTweetIds[_userId];\n    }\n}\n",
  "sourcePath": "/Users/brunowu/Imperial/MSc Project/Solidity Practise/tweether/contracts/tweets/TweetStorage.sol",
  "compiler": {
    "name": "solc",
    "version": "0.8.13+commit.abaa5c0e.Emscripten.clang"
  },
  "schemaVersion": "3.4.7",
  "updatedAt": "2022-05-12T15:13:49.137Z",
  "networkType": "ethereum",
  "devdoc": {
    "kind": "dev",
    "methods": {},
    "version": 1
  },
  "userdoc": {
    "kind": "user",
    "methods": {},
    "version": 1
  }
}