{
  "contractName": "TweetherICO",
  "abi": [
    {
      "inputs": [
        {
          "internalType": "address",
          "name": "_tokenAddr",
          "type": "address"
        }
      ],
      "stateMutability": "nonpayable",
      "type": "constructor"
    },
    {
      "inputs": [],
      "name": "RATE",
      "outputs": [
        {
          "internalType": "uint256",
          "name": "",
          "type": "uint256"
        }
      ],
      "stateMutability": "view",
      "type": "function",
      "constant": true
    },
    {
      "stateMutability": "payable",
      "type": "receive",
      "payable": true
    }
  ],
  "bytecode": "0x60806040526103e860015534801561001657600080fd5b50604051610478380380610478833981810160405281019061003891906100e1565b806000806101000a81548173ffffffffffffffffffffffffffffffffffffffff021916908373ffffffffffffffffffffffffffffffffffffffff1602179055505061010e565b600080fd5b600073ffffffffffffffffffffffffffffffffffffffff82169050919050565b60006100ae82610083565b9050919050565b6100be816100a3565b81146100c957600080fd5b50565b6000815190506100db816100b5565b92915050565b6000602082840312156100f7576100f661007e565b5b6000610105848285016100cc565b91505092915050565b61035b8061011d6000396000f3fe6080604052600436106100225760003560e01c8063664e9704146100d9576100d4565b366100d457600061003234610104565b905060008054906101000a900473ffffffffffffffffffffffffffffffffffffffff1673ffffffffffffffffffffffffffffffffffffffff1663a9059cbb33836040518363ffffffff1660e01b815260040161008f92919061018e565b6020604051808303816000875af11580156100ae573d6000803e3d6000fd5b505050506040513d601f19601f820116820180604052508101906100d291906101f4565b005b600080fd5b3480156100e557600080fd5b506100ee61012e565b6040516100fb9190610221565b60405180910390f35b6000600154670de0b6b3a76400008361011d919061029a565b61012791906102cb565b9050919050565b60015481565b600073ffffffffffffffffffffffffffffffffffffffff82169050919050565b600061015f82610134565b9050919050565b61016f81610154565b82525050565b6000819050919050565b61018881610175565b82525050565b60006040820190506101a36000830185610166565b6101b0602083018461017f565b9392505050565b600080fd5b60008115159050919050565b6101d1816101bc565b81146101dc57600080fd5b50565b6000815190506101ee816101c8565b92915050565b60006020828403121561020a576102096101b7565b5b6000610218848285016101df565b91505092915050565b6000602082019050610236600083018461017f565b92915050565b7f4e487b7100000000000000000000000000000000000000000000000000000000600052601260045260246000fd5b7f4e487b7100000000000000000000000000000000000000000000000000000000600052601160045260246000fd5b60006102a582610175565b91506102b083610175565b9250826102c0576102bf61023c565b5b828204905092915050565b60006102d682610175565b91506102e183610175565b9250817fffffffffffffffffffffffffffffffffffffffffffffffffffffffffffffffff048311821515161561031a5761031961026b565b5b82820290509291505056fea2646970667358221220edcee66cf85e2f7fbb81f8610bac8925f98056d36eaa83884fe518164466ff1b64736f6c634300080d0033",
  "immutableReferences": {},
  "source": "pragma solidity >=0.4.22 <0.9.0;\n\nimport \"./TweetherToken.sol\";\n\ncontract TweetherICO {\n    TweetherToken token;\n\n    uint256 public RATE = 1000; // 1 ETH = 1000 TWE\n\n    constructor(address _tokenAddr) {\n        token = TweetherToken(_tokenAddr);\n    }\n\n    receive() external payable {\n        uint256 _amount = _getTokenAmount(msg.value);\n\n        token.transfer(msg.sender, _amount);\n    }\n\n    function _getTokenAmount(uint256 _weiAmount)\n        internal\n        view\n        returns (uint256)\n    {\n        return (_weiAmount / 10**18) * RATE;\n    }\n}\n",
  "sourcePath": "/Users/brunowu/Imperial/MSc Project/Solidity Practise/tweether/contracts/token/TweetherICO.sol",
  "compiler": {
    "name": "solc",
    "version": "0.8.13+commit.abaa5c0e.Emscripten.clang"
  },
  "schemaVersion": "3.4.7",
  "updatedAt": "2022-05-12T15:13:49.613Z",
  "networkType": "ethereum",
  "devdoc": {
    "kind": "dev",
    "methods": {},
    "version": 1
  },
  "userdoc": {
    "kind": "user",
    "methods": {},
    "version": 1
  }
}