{
  "contractName": "UserController",
  "abi": [
    {
      "inputs": [],
      "name": "ownerAddr",
      "outputs": [
        {
          "internalType": "address",
          "name": "",
          "type": "address"
        }
      ],
      "stateMutability": "view",
      "type": "function",
      "constant": true
    },
    {
      "inputs": [
        {
          "internalType": "address",
          "name": "_managerAddr",
          "type": "address"
        }
      ],
      "name": "setManagerAddr",
      "outputs": [],
      "stateMutability": "nonpayable",
      "type": "function"
    },
    {
      "inputs": [
        {
          "internalType": "address",
          "name": "_newOwner",
          "type": "address"
        }
      ],
      "name": "transferOwnership",
      "outputs": [],
      "stateMutability": "nonpayable",
      "type": "function"
    },
    {
      "inputs": [
        {
          "internalType": "bytes32",
          "name": "_username",
          "type": "bytes32"
        },
        {
          "internalType": "bytes32",
          "name": "_firstName",
          "type": "bytes32"
        },
        {
          "internalType": "bytes32",
          "name": "_lastName",
          "type": "bytes32"
        },
        {
          "internalType": "string",
          "name": "_bio",
          "type": "string"
        },
        {
          "internalType": "string",
          "name": "_gravatarEmail",
          "type": "string"
        }
      ],
      "name": "createUser",
      "outputs": [
        {
          "internalType": "uint256",
          "name": "",
          "type": "uint256"
        }
      ],
      "stateMutability": "nonpayable",
      "type": "function"
    }
  ],
  "bytecode": "0x608060405234801561001057600080fd5b50336000806101000a81548173ffffffffffffffffffffffffffffffffffffffff021916908373ffffffffffffffffffffffffffffffffffffffff160217905550610a3e806100606000396000f3fe608060405234801561001057600080fd5b506004361061004c5760003560e01c80637978b231146100515780639c675eaa1461006d578063f2fde38b1461008b578063f901175b146100a7575b600080fd5b61006b60048036038101906100669190610526565b6100d7565b005b610075610173565b6040516100829190610562565b60405180910390f35b6100a560048036038101906100a09190610526565b610197565b005b6100c160048036038101906100bc91906106f9565b61026b565b6040516100ce91906107c5565b60405180910390f35b60008054906101000a900473ffffffffffffffffffffffffffffffffffffffff1673ffffffffffffffffffffffffffffffffffffffff163373ffffffffffffffffffffffffffffffffffffffff161461012f57600080fd5b80600160006101000a81548173ffffffffffffffffffffffffffffffffffffffff021916908373ffffffffffffffffffffffffffffffffffffffff16021790555050565b60008054906101000a900473ffffffffffffffffffffffffffffffffffffffff1681565b60008054906101000a900473ffffffffffffffffffffffffffffffffffffffff1673ffffffffffffffffffffffffffffffffffffffff163373ffffffffffffffffffffffffffffffffffffffff16146101ef57600080fd5b600073ffffffffffffffffffffffffffffffffffffffff168173ffffffffffffffffffffffffffffffffffffffff160361022857600080fd5b806000806101000a81548173ffffffffffffffffffffffffffffffffffffffff021916908373ffffffffffffffffffffffffffffffffffffffff16021790555050565b600080600160009054906101000a900473ffffffffffffffffffffffffffffffffffffffff16905060008173ffffffffffffffffffffffffffffffffffffffff1663bf40fac16040518163ffffffff1660e01b81526004016102cc9061083d565b602060405180830381865afa1580156102e9573d6000803e3d6000fd5b505050506040513d601f19601f8201168201806040525081019061030d9190610872565b9050600081905060008173ffffffffffffffffffffffffffffffffffffffff166382d38954336040518263ffffffff1660e01b815260040161034f9190610562565b602060405180830381865afa15801561036c573d6000803e3d6000fd5b505050506040513d601f19601f8201168201806040525081019061039091906108cb565b1461039a57600080fd5b60008173ffffffffffffffffffffffffffffffffffffffff1663ec4d88d78b6040518263ffffffff1660e01b81526004016103d59190610907565b602060405180830381865afa1580156103f2573d6000803e3d6000fd5b505050506040513d601f19601f8201168201806040525081019061041691906108cb565b1461042057600080fd5b8073ffffffffffffffffffffffffffffffffffffffff1663d399e63d338b8b8b8b8b6040518763ffffffff1660e01b815260040161046396959493929190610999565b6020604051808303816000875af1158015610482573d6000803e3d6000fd5b505050506040513d601f19601f820116820180604052508101906104a691906108cb565b935050505095945050505050565b6000604051905090565b600080fd5b600080fd5b600073ffffffffffffffffffffffffffffffffffffffff82169050919050565b60006104f3826104c8565b9050919050565b610503816104e8565b811461050e57600080fd5b50565b600081359050610520816104fa565b92915050565b60006020828403121561053c5761053b6104be565b5b600061054a84828501610511565b91505092915050565b61055c816104e8565b82525050565b60006020820190506105776000830184610553565b92915050565b6000819050919050565b6105908161057d565b811461059b57600080fd5b50565b6000813590506105ad81610587565b92915050565b600080fd5b600080fd5b6000601f19601f8301169050919050565b7f4e487b7100000000000000000000000000000000000000000000000000000000600052604160045260246000fd5b610606826105bd565b810181811067ffffffffffffffff82111715610625576106246105ce565b5b80604052505050565b60006106386104b4565b905061064482826105fd565b919050565b600067ffffffffffffffff821115610664576106636105ce565b5b61066d826105bd565b9050602081019050919050565b82818337600083830152505050565b600061069c61069784610649565b61062e565b9050828152602081018484840111156106b8576106b76105b8565b5b6106c384828561067a565b509392505050565b600082601f8301126106e0576106df6105b3565b5b81356106f0848260208601610689565b91505092915050565b600080600080600060a08688031215610715576107146104be565b5b60006107238882890161059e565b95505060206107348882890161059e565b94505060406107458882890161059e565b935050606086013567ffffffffffffffff811115610766576107656104c3565b5b610772888289016106cb565b925050608086013567ffffffffffffffff811115610793576107926104c3565b5b61079f888289016106cb565b9150509295509295909350565b6000819050919050565b6107bf816107ac565b82525050565b60006020820190506107da60008301846107b6565b92915050565b600082825260208201905092915050565b7f5573657253746f72616765000000000000000000000000000000000000000000600082015250565b6000610827600b836107e0565b9150610832826107f1565b602082019050919050565b600060208201905081810360008301526108568161081a565b9050919050565b60008151905061086c816104fa565b92915050565b600060208284031215610888576108876104be565b5b60006108968482850161085d565b91505092915050565b6108a8816107ac565b81146108b357600080fd5b50565b6000815190506108c58161089f565b92915050565b6000602082840312156108e1576108e06104be565b5b60006108ef848285016108b6565b91505092915050565b6109018161057d565b82525050565b600060208201905061091c60008301846108f8565b92915050565b600081519050919050565b60005b8381101561094b578082015181840152602081019050610930565b8381111561095a576000848401525b50505050565b600061096b82610922565b61097581856107e0565b935061098581856020860161092d565b61098e816105bd565b840191505092915050565b600060c0820190506109ae6000830189610553565b6109bb60208301886108f8565b6109c860408301876108f8565b6109d560608301866108f8565b81810360808301526109e78185610960565b905081810360a08301526109fb8184610960565b905097965050505050505056fea264697066735822122027d43a8e9c82ac22fe0835b0c0d3f4be32bf5a127a5f0c2102eb81fea8e403ce64736f6c634300080d0033",
  "immutableReferences": {},
  "source": "// SPDX-License-Identifier: MIT\npragma solidity >=0.4.22 <0.9.0;\n\nimport \"../helpers/BaseController.sol\";\nimport \"../ContractManager.sol\";\nimport \"./UserStorage.sol\";\n\ncontract UserController is BaseController {\n    function createUser(\n        bytes32 _username,\n        bytes32 _firstName,\n        bytes32 _lastName,\n        string memory _bio,\n        string memory _gravatarEmail\n    ) public returns (uint256) {\n        ContractManager _manager = ContractManager(managerAddr);\n\n        address _userStorageAddr = _manager.getAddress(\"UserStorage\");\n        UserStorage _storage = UserStorage(_userStorageAddr);\n\n        require(_storage.addresses(msg.sender) == 0);\n        require(_storage.usernames(_username) == 0);\n\n        return\n            _storage.createUser(\n                msg.sender,\n                _username,\n                _firstName,\n                _lastName,\n                _bio,\n                _gravatarEmail\n            );\n    }\n}\n",
  "sourcePath": "/Users/brunowu/Imperial/MSc Project/Solidity Practise/tweether/contracts/users/UserController.sol",
  "compiler": {
    "name": "solc",
    "version": "0.8.13+commit.abaa5c0e.Emscripten.clang"
  },
  "schemaVersion": "3.4.7",
  "updatedAt": "2022-05-12T15:13:48.822Z",
  "networkType": "ethereum",
  "devdoc": {
    "kind": "dev",
    "methods": {},
    "version": 1
  },
  "userdoc": {
    "kind": "user",
    "methods": {},
    "version": 1
  }
}