{
  "contractName": "BaseStorage",
  "abi": [
    {
      "inputs": [],
      "name": "controllerAddr",
      "outputs": [
        {
          "internalType": "address",
          "name": "",
          "type": "address"
        }
      ],
      "stateMutability": "view",
      "type": "function"
    },
    {
      "inputs": [],
      "name": "ownerAddr",
      "outputs": [
        {
          "internalType": "address",
          "name": "",
          "type": "address"
        }
      ],
      "stateMutability": "view",
      "type": "function"
    },
    {
      "inputs": [
        {
          "internalType": "address",
          "name": "_newOwner",
          "type": "address"
        }
      ],
      "name": "transferOwnership",
      "outputs": [],
      "stateMutability": "nonpayable",
      "type": "function"
    },
    {
      "inputs": [
        {
          "internalType": "address",
          "name": "_controllerAddr",
          "type": "address"
        }
      ],
      "name": "setControllerAddr",
      "outputs": [],
      "stateMutability": "nonpayable",
      "type": "function"
    }
  ],
  "bytecode": "0x608060405234801561001057600080fd5b50336000806101000a81548173ffffffffffffffffffffffffffffffffffffffff021916908373ffffffffffffffffffffffffffffffffffffffff16021790555061036f806100606000396000f3fe608060405234801561001057600080fd5b506004361061004c5760003560e01c80636981fa7d146100515780639c675eaa1461006d578063ee255c571461008b578063f2fde38b146100a9575b600080fd5b61006b600480360381019061006691906102e2565b6100c5565b005b610075610161565b604051610082919061031e565b60405180910390f35b610093610185565b6040516100a0919061031e565b60405180910390f35b6100c360048036038101906100be91906102e2565b6101ab565b005b60008054906101000a900473ffffffffffffffffffffffffffffffffffffffff1673ffffffffffffffffffffffffffffffffffffffff163373ffffffffffffffffffffffffffffffffffffffff161461011d57600080fd5b80600160006101000a81548173ffffffffffffffffffffffffffffffffffffffff021916908373ffffffffffffffffffffffffffffffffffffffff16021790555050565b60008054906101000a900473ffffffffffffffffffffffffffffffffffffffff1681565b600160009054906101000a900473ffffffffffffffffffffffffffffffffffffffff1681565b60008054906101000a900473ffffffffffffffffffffffffffffffffffffffff1673ffffffffffffffffffffffffffffffffffffffff163373ffffffffffffffffffffffffffffffffffffffff161461020357600080fd5b600073ffffffffffffffffffffffffffffffffffffffff168173ffffffffffffffffffffffffffffffffffffffff160361023c57600080fd5b806000806101000a81548173ffffffffffffffffffffffffffffffffffffffff021916908373ffffffffffffffffffffffffffffffffffffffff16021790555050565b600080fd5b600073ffffffffffffffffffffffffffffffffffffffff82169050919050565b60006102af82610284565b9050919050565b6102bf816102a4565b81146102ca57600080fd5b50565b6000813590506102dc816102b6565b92915050565b6000602082840312156102f8576102f761027f565b5b6000610306848285016102cd565b91505092915050565b610318816102a4565b82525050565b6000602082019050610333600083018461030f565b9291505056fea2646970667358221220aae6ad7d442c36f42b321d8963c200c2b33ebc471c30e53ea4bb0f1521d1a6ea64736f6c634300080d0033",
  "immutableReferences": {},
  "source": "// SPDX-License-Identifier: MIT\npragma solidity >=0.4.22 <0.9.0;\n\nimport \"./Owned.sol\";\n\ncontract BaseStorage is Owned {\n    address public controllerAddr;\n\n    function setControllerAddr(address _controllerAddr) public onlyOwner {\n        controllerAddr = _controllerAddr;\n    }\n\n    modifier onlyController() {\n        require(msg.sender == controllerAddr);\n        _;\n    }\n}\n",
  "sourcePath": "/Users/brunowu/Imperial/MSc Project/Solidity Practise/tweether/contracts/helpers/BaseStorage.sol",
  "compiler": {
    "name": "solc",
    "version": "0.8.13+commit.abaa5c0e.Emscripten.clang"
  },
  "schemaVersion": "3.4.7",
  "updatedAt": "2022-05-10T21:00:22.250Z",
  "devdoc": {
    "kind": "dev",
    "methods": {},
    "version": 1
  },
  "userdoc": {
    "kind": "user",
    "methods": {},
    "version": 1
  }
}