{
  "contractName": "UserStorage",
  "abi": [
    {
      "inputs": [
        {
          "internalType": "address",
          "name": "",
          "type": "address"
        }
      ],
      "name": "addresses",
      "outputs": [
        {
          "internalType": "uint256",
          "name": "",
          "type": "uint256"
        }
      ],
      "stateMutability": "view",
      "type": "function",
      "constant": true
    },
    {
      "inputs": [],
      "name": "controllerAddr",
      "outputs": [
        {
          "internalType": "address",
          "name": "",
          "type": "address"
        }
      ],
      "stateMutability": "view",
      "type": "function",
      "constant": true
    },
    {
      "inputs": [],
      "name": "ownerAddr",
      "outputs": [
        {
          "internalType": "address",
          "name": "",
          "type": "address"
        }
      ],
      "stateMutability": "view",
      "type": "function",
      "constant": true
    },
    {
      "inputs": [
        {
          "internalType": "uint256",
          "name": "",
          "type": "uint256"
        }
      ],
      "name": "profiles",
      "outputs": [
        {
          "internalType": "uint256",
          "name": "id",
          "type": "uint256"
        },
        {
          "internalType": "bytes32",
          "name": "username",
          "type": "bytes32"
        },
        {
          "internalType": "bytes32",
          "name": "firstName",
          "type": "bytes32"
        },
        {
          "internalType": "bytes32",
          "name": "lastName",
          "type": "bytes32"
        },
        {
          "internalType": "string",
          "name": "bio",
          "type": "string"
        },
        {
          "internalType": "string",
          "name": "gravatarEmail",
          "type": "string"
        }
      ],
      "stateMutability": "view",
      "type": "function",
      "constant": true
    },
    {
      "inputs": [
        {
          "internalType": "address",
          "name": "_controllerAddr",
          "type": "address"
        }
      ],
      "name": "setControllerAddr",
      "outputs": [],
      "stateMutability": "nonpayable",
      "type": "function"
    },
    {
      "inputs": [
        {
          "internalType": "address",
          "name": "_newOwner",
          "type": "address"
        }
      ],
      "name": "transferOwnership",
      "outputs": [],
      "stateMutability": "nonpayable",
      "type": "function"
    },
    {
      "inputs": [
        {
          "internalType": "bytes32",
          "name": "",
          "type": "bytes32"
        }
      ],
      "name": "usernames",
      "outputs": [
        {
          "internalType": "uint256",
          "name": "",
          "type": "uint256"
        }
      ],
      "stateMutability": "view",
      "type": "function",
      "constant": true
    },
    {
      "inputs": [
        {
          "internalType": "address",
          "name": "_address",
          "type": "address"
        },
        {
          "internalType": "bytes32",
          "name": "_username",
          "type": "bytes32"
        },
        {
          "internalType": "bytes32",
          "name": "_firstName",
          "type": "bytes32"
        },
        {
          "internalType": "bytes32",
          "name": "_lastName",
          "type": "bytes32"
        },
        {
          "internalType": "string",
          "name": "_bio",
          "type": "string"
        },
        {
          "internalType": "string",
          "name": "_gravatarEmail",
          "type": "string"
        }
      ],
      "name": "createUser",
      "outputs": [
        {
          "internalType": "uint256",
          "name": "",
          "type": "uint256"
        }
      ],
      "stateMutability": "nonpayable",
      "type": "function"
    }
  ],
  "bytecode": "0x6080604052600060055534801561001557600080fd5b50336000806101000a81548173ffffffffffffffffffffffffffffffffffffffff021916908373ffffffffffffffffffffffffffffffffffffffff160217905550610d02806100656000396000f3fe608060405234801561001057600080fd5b50600436106100885760003560e01c8063d399e63d1161005b578063d399e63d1461012c578063ec4d88d71461015c578063ee255c571461018c578063f2fde38b146101aa57610088565b80636981fa7d1461008d57806382d38954146100a95780639c675eaa146100d9578063c36fe3d6146100f7575b600080fd5b6100a760048036038101906100a2919061079d565b6101c6565b005b6100c360048036038101906100be919061079d565b610262565b6040516100d091906107e3565b60405180910390f35b6100e161027a565b6040516100ee919061080d565b60405180910390f35b610111600480360381019061010c9190610854565b61029e565b60405161012396959493929190610933565b60405180910390f35b61014660048036038101906101419190610b03565b6103ea565b60405161015391906107e3565b60405180910390f35b61017660048036038101906101719190610bc8565b610576565b60405161018391906107e3565b60405180910390f35b61019461058e565b6040516101a1919061080d565b60405180910390f35b6101c460048036038101906101bf919061079d565b6105b4565b005b60008054906101000a900473ffffffffffffffffffffffffffffffffffffffff1673ffffffffffffffffffffffffffffffffffffffff163373ffffffffffffffffffffffffffffffffffffffff161461021e57600080fd5b80600160006101000a81548173ffffffffffffffffffffffffffffffffffffffff021916908373ffffffffffffffffffffffffffffffffffffffff16021790555050565b60036020528060005260406000206000915090505481565b60008054906101000a900473ffffffffffffffffffffffffffffffffffffffff1681565b60026020528060005260406000206000915090508060000154908060010154908060020154908060030154908060040180546102d990610c24565b80601f016020809104026020016040519081016040528092919081815260200182805461030590610c24565b80156103525780601f1061032757610100808354040283529160200191610352565b820191906000526020600020905b81548152906001019060200180831161033557829003601f168201915b50505050509080600501805461036790610c24565b80601f016020809104026020016040519081016040528092919081815260200182805461039390610c24565b80156103e05780601f106103b5576101008083540402835291602001916103e0565b820191906000526020600020905b8154815290600101906020018083116103c357829003601f168201915b5050505050905086565b6000600160009054906101000a900473ffffffffffffffffffffffffffffffffffffffff1673ffffffffffffffffffffffffffffffffffffffff163373ffffffffffffffffffffffffffffffffffffffff161461044657600080fd5b6005600081548092919061045990610c84565b91905055506040518060c001604052806005548152602001878152602001868152602001858152602001848152602001838152506002600060055481526020019081526020016000206000820151816000015560208201518160010155604082015181600201556060820151816003015560808201518160040190805190602001906104e6929190610688565b5060a0820151816005019080519060200190610503929190610688565b50905050600554600360008973ffffffffffffffffffffffffffffffffffffffff1673ffffffffffffffffffffffffffffffffffffffff16815260200190815260200160002081905550600554600460008881526020019081526020016000208190555060055490509695505050505050565b60046020528060005260406000206000915090505481565b600160009054906101000a900473ffffffffffffffffffffffffffffffffffffffff1681565b60008054906101000a900473ffffffffffffffffffffffffffffffffffffffff1673ffffffffffffffffffffffffffffffffffffffff163373ffffffffffffffffffffffffffffffffffffffff161461060c57600080fd5b600073ffffffffffffffffffffffffffffffffffffffff168173ffffffffffffffffffffffffffffffffffffffff160361064557600080fd5b806000806101000a81548173ffffffffffffffffffffffffffffffffffffffff021916908373ffffffffffffffffffffffffffffffffffffffff16021790555050565b82805461069490610c24565b90600052602060002090601f0160209004810192826106b657600085556106fd565b82601f106106cf57805160ff19168380011785556106fd565b828001600101855582156106fd579182015b828111156106fc5782518255916020019190600101906106e1565b5b50905061070a919061070e565b5090565b5b8082111561072757600081600090555060010161070f565b5090565b6000604051905090565b600080fd5b600080fd5b600073ffffffffffffffffffffffffffffffffffffffff82169050919050565b600061076a8261073f565b9050919050565b61077a8161075f565b811461078557600080fd5b50565b60008135905061079781610771565b92915050565b6000602082840312156107b3576107b2610735565b5b60006107c184828501610788565b91505092915050565b6000819050919050565b6107dd816107ca565b82525050565b60006020820190506107f860008301846107d4565b92915050565b6108078161075f565b82525050565b600060208201905061082260008301846107fe565b92915050565b610831816107ca565b811461083c57600080fd5b50565b60008135905061084e81610828565b92915050565b60006020828403121561086a57610869610735565b5b60006108788482850161083f565b91505092915050565b6000819050919050565b61089481610881565b82525050565b600081519050919050565b600082825260208201905092915050565b60005b838110156108d45780820151818401526020810190506108b9565b838111156108e3576000848401525b50505050565b6000601f19601f8301169050919050565b60006109058261089a565b61090f81856108a5565b935061091f8185602086016108b6565b610928816108e9565b840191505092915050565b600060c08201905061094860008301896107d4565b610955602083018861088b565b610962604083018761088b565b61096f606083018661088b565b818103608083015261098181856108fa565b905081810360a083015261099581846108fa565b9050979650505050505050565b6109ab81610881565b81146109b657600080fd5b50565b6000813590506109c8816109a2565b92915050565b600080fd5b600080fd5b7f4e487b7100000000000000000000000000000000000000000000000000000000600052604160045260246000fd5b610a10826108e9565b810181811067ffffffffffffffff82111715610a2f57610a2e6109d8565b5b80604052505050565b6000610a4261072b565b9050610a4e8282610a07565b919050565b600067ffffffffffffffff821115610a6e57610a6d6109d8565b5b610a77826108e9565b9050602081019050919050565b82818337600083830152505050565b6000610aa6610aa184610a53565b610a38565b905082815260208101848484011115610ac257610ac16109d3565b5b610acd848285610a84565b509392505050565b600082601f830112610aea57610ae96109ce565b5b8135610afa848260208601610a93565b91505092915050565b60008060008060008060c08789031215610b2057610b1f610735565b5b6000610b2e89828a01610788565b9650506020610b3f89828a016109b9565b9550506040610b5089828a016109b9565b9450506060610b6189828a016109b9565b935050608087013567ffffffffffffffff811115610b8257610b8161073a565b5b610b8e89828a01610ad5565b92505060a087013567ffffffffffffffff811115610baf57610bae61073a565b5b610bbb89828a01610ad5565b9150509295509295509295565b600060208284031215610bde57610bdd610735565b5b6000610bec848285016109b9565b91505092915050565b7f4e487b7100000000000000000000000000000000000000000000000000000000600052602260045260246000fd5b60006002820490506001821680610c3c57607f821691505b602082108103610c4f57610c4e610bf5565b5b50919050565b7f4e487b7100000000000000000000000000000000000000000000000000000000600052601160045260246000fd5b6000610c8f826107ca565b91507fffffffffffffffffffffffffffffffffffffffffffffffffffffffffffffffff8203610cc157610cc0610c55565b5b60018201905091905056fea26469706673582212208f7994bf7b60a7e19f0f69d1db9b76179057bd6b716879e353bf5404a78ccad464736f6c634300080d0033",
  "immutableReferences": {},
  "source": "// SPDX-License-Identifier: UNLICENSED\npragma solidity ^0.8.13;\n\nimport \"../helpers/BaseStorage.sol\";\n\ncontract UserStorage is BaseStorage {\n    struct Profile {\n        uint256 id;\n        bytes32 username;\n        bytes32 firstName;\n        bytes32 lastName;\n        string bio;\n        string gravatarEmail;\n    }\n\n    mapping(uint256 => Profile) public profiles;\n    mapping(address => uint256) public addresses;\n    mapping(bytes32 => uint256) public usernames;\n\n    uint256 latestUserId = 0;\n\n    function createUser(\n        address _address,\n        bytes32 _username,\n        bytes32 _firstName,\n        bytes32 _lastName,\n        string memory _bio,\n        string memory _gravatarEmail\n    ) public onlyController returns (uint256) {\n        latestUserId++;\n\n        profiles[latestUserId] = Profile(\n            latestUserId,\n            _username,\n            _firstName,\n            _lastName,\n            _bio,\n            _gravatarEmail\n        );\n\n        addresses[_address] = latestUserId;\n        usernames[_username] = latestUserId;\n\n        return latestUserId;\n    }\n}\n",
  "sourcePath": "/Users/brunowu/Imperial/MSc Project/Solidity Practise/tweether/contracts/users/UserStorage.sol",
  "compiler": {
    "name": "solc",
    "version": "0.8.13+commit.abaa5c0e.Emscripten.clang"
  },
  "schemaVersion": "3.4.7",
  "updatedAt": "2022-05-12T15:13:48.824Z",
  "networkType": "ethereum",
  "devdoc": {
    "kind": "dev",
    "methods": {},
    "version": 1
  },
  "userdoc": {
    "kind": "user",
    "methods": {},
    "version": 1
  }
}